{
  "_format": "hh-sol-artifact-1",
  "contractName": "MyERC20",
  "sourceName": "contracts/MyERC20.sol",
  "abi": [
    {
      "inputs": [
        {
          "internalType": "string",
          "name": "name",
          "type": "string"
        },
        {
          "internalType": "string",
          "name": "symbol",
          "type": "string"
        }
      ],
      "stateMutability": "nonpayable",
      "type": "constructor"
    },
    {
      "anonymous": false,
      "inputs": [
        {
          "indexed": true,
          "internalType": "address",
          "name": "owner",
          "type": "address"
        },
        {
          "indexed": true,
          "internalType": "address",
          "name": "spender",
          "type": "address"
        },
        {
          "indexed": false,
          "internalType": "uint256",
          "name": "value",
          "type": "uint256"
        }
      ],
      "name": "Approval",
      "type": "event"
    },
    {
      "anonymous": false,
      "inputs": [
        {
          "indexed": true,
          "internalType": "address",
          "name": "from",
          "type": "address"
        },
        {
          "indexed": true,
          "internalType": "address",
          "name": "to",
          "type": "address"
        },
        {
          "indexed": false,
          "internalType": "uint256",
          "name": "value",
          "type": "uint256"
        }
      ],
      "name": "Transfer",
      "type": "event"
    },
    {
      "inputs": [],
      "name": "airdrop",
      "outputs": [],
      "stateMutability": "nonpayable",
      "type": "function"
    },
    {
      "inputs": [
        {
          "internalType": "address",
          "name": "owner",
          "type": "address"
        },
        {
          "internalType": "address",
          "name": "spender",
          "type": "address"
        }
      ],
      "name": "allowance",
      "outputs": [
        {
          "internalType": "uint256",
          "name": "",
          "type": "uint256"
        }
      ],
      "stateMutability": "view",
      "type": "function"
    },
    {
      "inputs": [
        {
          "internalType": "address",
          "name": "spender",
          "type": "address"
        },
        {
          "internalType": "uint256",
          "name": "amount",
          "type": "uint256"
        }
      ],
      "name": "approve",
      "outputs": [
        {
          "internalType": "bool",
          "name": "",
          "type": "bool"
        }
      ],
      "stateMutability": "nonpayable",
      "type": "function"
    },
    {
      "inputs": [
        {
          "internalType": "address",
          "name": "account",
          "type": "address"
        }
      ],
      "name": "balanceOf",
      "outputs": [
        {
          "internalType": "uint256",
          "name": "",
          "type": "uint256"
        }
      ],
      "stateMutability": "view",
      "type": "function"
    },
    {
      "inputs": [],
      "name": "decimals",
      "outputs": [
        {
          "internalType": "uint8",
          "name": "",
          "type": "uint8"
        }
      ],
      "stateMutability": "view",
      "type": "function"
    },
    {
      "inputs": [
        {
          "internalType": "address",
          "name": "spender",
          "type": "address"
        },
        {
          "internalType": "uint256",
          "name": "subtractedValue",
          "type": "uint256"
        }
      ],
      "name": "decreaseAllowance",
      "outputs": [
        {
          "internalType": "bool",
          "name": "",
          "type": "bool"
        }
      ],
      "stateMutability": "nonpayable",
      "type": "function"
    },
    {
      "inputs": [
        {
          "internalType": "address",
          "name": "spender",
          "type": "address"
        },
        {
          "internalType": "uint256",
          "name": "addedValue",
          "type": "uint256"
        }
      ],
      "name": "increaseAllowance",
      "outputs": [
        {
          "internalType": "bool",
          "name": "",
          "type": "bool"
        }
      ],
      "stateMutability": "nonpayable",
      "type": "function"
    },
    {
      "inputs": [],
      "name": "name",
      "outputs": [
        {
          "internalType": "string",
          "name": "",
          "type": "string"
        }
      ],
      "stateMutability": "view",
      "type": "function"
    },
    {
      "inputs": [],
      "name": "symbol",
      "outputs": [
        {
          "internalType": "string",
          "name": "",
          "type": "string"
        }
      ],
      "stateMutability": "view",
      "type": "function"
    },
    {
      "inputs": [],
      "name": "totalSupply",
      "outputs": [
        {
          "internalType": "uint256",
          "name": "",
          "type": "uint256"
        }
      ],
      "stateMutability": "view",
      "type": "function"
    },
    {
      "inputs": [
        {
          "internalType": "address",
          "name": "to",
          "type": "address"
        },
        {
          "internalType": "uint256",
          "name": "amount",
          "type": "uint256"
        }
      ],
      "name": "transfer",
      "outputs": [
        {
          "internalType": "bool",
          "name": "",
          "type": "bool"
        }
      ],
      "stateMutability": "nonpayable",
      "type": "function"
    },
    {
      "inputs": [
        {
          "internalType": "address",
          "name": "from",
          "type": "address"
        },
        {
          "internalType": "address",
          "name": "to",
          "type": "address"
        },
        {
          "internalType": "uint256",
          "name": "amount",
          "type": "uint256"
        }
      ],
      "name": "transferFrom",
      "outputs": [
        {
          "internalType": "bool",
          "name": "",
          "type": "bool"
        }
      ],
      "stateMutability": "nonpayable",
      "type": "function"
    }
  ],
  "bytecode": "0x60806040523480156200001157600080fd5b5060405162001990380380620019908339818101604052810190620000379190620002c2565b818181600390805190602001906200005192919062000075565b5080600490805190602001906200006a92919062000075565b5050505050620003ac565b828054620000839062000376565b90600052602060002090601f016020900481019282620000a75760008555620000f3565b82601f10620000c257805160ff1916838001178555620000f3565b82800160010185558215620000f3579182015b82811115620000f2578251825591602001919060010190620000d5565b5b50905062000102919062000106565b5090565b5b808211156200012157600081600090555060010162000107565b5090565b6000604051905090565b600080fd5b600080fd5b600080fd5b600080fd5b6000601f19601f8301169050919050565b7f4e487b7100000000000000000000000000000000000000000000000000000000600052604160045260246000fd5b6200018e8262000143565b810181811067ffffffffffffffff82111715620001b057620001af62000154565b5b80604052505050565b6000620001c562000125565b9050620001d3828262000183565b919050565b600067ffffffffffffffff821115620001f657620001f562000154565b5b620002018262000143565b9050602081019050919050565b60005b838110156200022e57808201518184015260208101905062000211565b838111156200023e576000848401525b50505050565b60006200025b6200025584620001d8565b620001b9565b9050828152602081018484840111156200027a57620002796200013e565b5b620002878482856200020e565b509392505050565b600082601f830112620002a757620002a662000139565b5b8151620002b984826020860162000244565b91505092915050565b60008060408385031215620002dc57620002db6200012f565b5b600083015167ffffffffffffffff811115620002fd57620002fc62000134565b5b6200030b858286016200028f565b925050602083015167ffffffffffffffff8111156200032f576200032e62000134565b5b6200033d858286016200028f565b9150509250929050565b7f4e487b7100000000000000000000000000000000000000000000000000000000600052602260045260246000fd5b600060028204905060018216806200038f57607f821691505b60208210811415620003a657620003a562000347565b5b50919050565b6115d480620003bc6000396000f3fe608060405234801561001057600080fd5b50600436106100b45760003560e01c80633950935111610071578063395093511461017d57806370a08231146101ad57806395d89b41146101dd578063a457c2d7146101fb578063a9059cbb1461022b578063dd62ed3e1461025b576100b4565b806306fdde03146100b9578063095ea7b3146100d757806318160ddd1461010757806323b872dd14610125578063313ce567146101555780633884d63514610173575b600080fd5b6100c161028b565b6040516100ce9190610d90565b60405180910390f35b6100f160048036038101906100ec9190610e4b565b61031d565b6040516100fe9190610ea6565b60405180910390f35b61010f610340565b60405161011c9190610ed0565b60405180910390f35b61013f600480360381019061013a9190610eeb565b61034a565b60405161014c9190610ea6565b60405180910390f35b61015d610379565b60405161016a9190610f5a565b60405180910390f35b61017b610382565b005b61019760048036038101906101929190610e4b565b61047b565b6040516101a49190610ea6565b60405180910390f35b6101c760048036038101906101c29190610f75565b6104b2565b6040516101d49190610ed0565b60405180910390f35b6101e56104fa565b6040516101f29190610d90565b60405180910390f35b61021560048036038101906102109190610e4b565b61058c565b6040516102229190610ea6565b60405180910390f35b61024560048036038101906102409190610e4b565b610603565b6040516102529190610ea6565b60405180910390f35b61027560048036038101906102709190610fa2565b610626565b6040516102829190610ed0565b60405180910390f35b60606003805461029a90611011565b80601f01602080910402602001604051908101604052809291908181526020018280546102c690611011565b80156103135780601f106102e857610100808354040283529160200191610313565b820191906000526020600020905b8154815290600101906020018083116102f657829003601f168201915b5050505050905090565b6000806103286106ad565b90506103358185856106b5565b600191505092915050565b6000600254905090565b6000806103556106ad565b9050610362858285610880565b61036d85858561090c565b60019150509392505050565b60006012905090565b60001515600560003373ffffffffffffffffffffffffffffffffffffffff1673ffffffffffffffffffffffffffffffffffffffff16815260200190815260200160002060009054906101000a900460ff16151514610415576040517f08c379a000000000000000000000000000000000000000000000000000000000815260040161040c906110b5565b60405180910390fd5b61042133612710610b8d565b6001600560003373ffffffffffffffffffffffffffffffffffffffff1673ffffffffffffffffffffffffffffffffffffffff16815260200190815260200160002060006101000a81548160ff021916908315150217905550565b6000806104866106ad565b90506104a78185856104988589610626565b6104a29190611104565b6106b5565b600191505092915050565b60008060008373ffffffffffffffffffffffffffffffffffffffff1673ffffffffffffffffffffffffffffffffffffffff168152602001908152602001600020549050919050565b60606004805461050990611011565b80601f016020809104026020016040519081016040528092919081815260200182805461053590611011565b80156105825780601f1061055757610100808354040283529160200191610582565b820191906000526020600020905b81548152906001019060200180831161056557829003601f168201915b5050505050905090565b6000806105976106ad565b905060006105a58286610626565b9050838110156105ea576040517f08c379a00000000000000000000000000000000000000000000000000000000081526004016105e1906111cc565b60405180910390fd5b6105f782868684036106b5565b60019250505092915050565b60008061060e6106ad565b905061061b81858561090c565b600191505092915050565b6000600160008473ffffffffffffffffffffffffffffffffffffffff1673ffffffffffffffffffffffffffffffffffffffff16815260200190815260200160002060008373ffffffffffffffffffffffffffffffffffffffff1673ffffffffffffffffffffffffffffffffffffffff16815260200190815260200160002054905092915050565b600033905090565b600073ffffffffffffffffffffffffffffffffffffffff168373ffffffffffffffffffffffffffffffffffffffff161415610725576040517f08c379a000000000000000000000000000000000000000000000000000000000815260040161071c9061125e565b60405180910390fd5b600073ffffffffffffffffffffffffffffffffffffffff168273ffffffffffffffffffffffffffffffffffffffff161415610795576040517f08c379a000000000000000000000000000000000000000000000000000000000815260040161078c906112f0565b60405180910390fd5b80600160008573ffffffffffffffffffffffffffffffffffffffff1673ffffffffffffffffffffffffffffffffffffffff16815260200190815260200160002060008473ffffffffffffffffffffffffffffffffffffffff1673ffffffffffffffffffffffffffffffffffffffff168152602001908152602001600020819055508173ffffffffffffffffffffffffffffffffffffffff168373ffffffffffffffffffffffffffffffffffffffff167f8c5be1e5ebec7d5bd14f71427d1e84f3dd0314c0f7b2291e5b200ac8c7c3b925836040516108739190610ed0565b60405180910390a3505050565b600061088c8484610626565b90507fffffffffffffffffffffffffffffffffffffffffffffffffffffffffffffffff811461090657818110156108f8576040517f08c379a00000000000000000000000000000000000000000000000000000000081526004016108ef9061135c565b60405180910390fd5b61090584848484036106b5565b5b50505050565b600073ffffffffffffffffffffffffffffffffffffffff168373ffffffffffffffffffffffffffffffffffffffff16141561097c576040517f08c379a0000000000000000000000000000000000000000000000000000000008152600401610973906113ee565b60405180910390fd5b600073ffffffffffffffffffffffffffffffffffffffff168273ffffffffffffffffffffffffffffffffffffffff1614156109ec576040517f08c379a00000000000000000000000000000000000000000000000000000000081526004016109e390611480565b60405180910390fd5b6109f7838383610ced565b60008060008573ffffffffffffffffffffffffffffffffffffffff1673ffffffffffffffffffffffffffffffffffffffff16815260200190815260200160002054905081811015610a7d576040517f08c379a0000000000000000000000000000000000000000000000000000000008152600401610a7490611512565b60405180910390fd5b8181036000808673ffffffffffffffffffffffffffffffffffffffff1673ffffffffffffffffffffffffffffffffffffffff16815260200190815260200160002081905550816000808573ffffffffffffffffffffffffffffffffffffffff1673ffffffffffffffffffffffffffffffffffffffff1681526020019081526020016000206000828254610b109190611104565b925050819055508273ffffffffffffffffffffffffffffffffffffffff168473ffffffffffffffffffffffffffffffffffffffff167fddf252ad1be2c89b69c2b068fc378daa952ba7f163c4a11628f55a4df523b3ef84604051610b749190610ed0565b60405180910390a3610b87848484610cf2565b50505050565b600073ffffffffffffffffffffffffffffffffffffffff168273ffffffffffffffffffffffffffffffffffffffff161415610bfd576040517f08c379a0000000000000000000000000000000000000000000000000000000008152600401610bf49061157e565b60405180910390fd5b610c0960008383610ced565b8060026000828254610c1b9190611104565b92505081905550806000808473ffffffffffffffffffffffffffffffffffffffff1673ffffffffffffffffffffffffffffffffffffffff1681526020019081526020016000206000828254610c709190611104565b925050819055508173ffffffffffffffffffffffffffffffffffffffff16600073ffffffffffffffffffffffffffffffffffffffff167fddf252ad1be2c89b69c2b068fc378daa952ba7f163c4a11628f55a4df523b3ef83604051610cd59190610ed0565b60405180910390a3610ce960008383610cf2565b5050565b505050565b505050565b600081519050919050565b600082825260208201905092915050565b60005b83811015610d31578082015181840152602081019050610d16565b83811115610d40576000848401525b50505050565b6000601f19601f8301169050919050565b6000610d6282610cf7565b610d6c8185610d02565b9350610d7c818560208601610d13565b610d8581610d46565b840191505092915050565b60006020820190508181036000830152610daa8184610d57565b905092915050565b600080fd5b600073ffffffffffffffffffffffffffffffffffffffff82169050919050565b6000610de282610db7565b9050919050565b610df281610dd7565b8114610dfd57600080fd5b50565b600081359050610e0f81610de9565b92915050565b6000819050919050565b610e2881610e15565b8114610e3357600080fd5b50565b600081359050610e4581610e1f565b92915050565b60008060408385031215610e6257610e61610db2565b5b6000610e7085828601610e00565b9250506020610e8185828601610e36565b9150509250929050565b60008115159050919050565b610ea081610e8b565b82525050565b6000602082019050610ebb6000830184610e97565b92915050565b610eca81610e15565b82525050565b6000602082019050610ee56000830184610ec1565b92915050565b600080600060608486031215610f0457610f03610db2565b5b6000610f1286828701610e00565b9350506020610f2386828701610e00565b9250506040610f3486828701610e36565b9150509250925092565b600060ff82169050919050565b610f5481610f3e565b82525050565b6000602082019050610f6f6000830184610f4b565b92915050565b600060208284031215610f8b57610f8a610db2565b5b6000610f9984828501610e00565b91505092915050565b60008060408385031215610fb957610fb8610db2565b5b6000610fc785828601610e00565b9250506020610fd885828601610e00565b9150509250929050565b7f4e487b7100000000000000000000000000000000000000000000000000000000600052602260045260246000fd5b6000600282049050600182168061102957607f821691505b6020821081141561103d5761103c610fe2565b5b50919050565b7f5468697320757365722068617320636c61696d65642061697264726f7020616c60008201527f7265616479000000000000000000000000000000000000000000000000000000602082015250565b600061109f602583610d02565b91506110aa82611043565b604082019050919050565b600060208201905081810360008301526110ce81611092565b9050919050565b7f4e487b7100000000000000000000000000000000000000000000000000000000600052601160045260246000fd5b600061110f82610e15565b915061111a83610e15565b9250827fffffffffffffffffffffffffffffffffffffffffffffffffffffffffffffffff0382111561114f5761114e6110d5565b5b828201905092915050565b7f45524332303a2064656372656173656420616c6c6f77616e63652062656c6f7760008201527f207a65726f000000000000000000000000000000000000000000000000000000602082015250565b60006111b6602583610d02565b91506111c18261115a565b604082019050919050565b600060208201905081810360008301526111e5816111a9565b9050919050565b7f45524332303a20617070726f76652066726f6d20746865207a65726f2061646460008201527f7265737300000000000000000000000000000000000000000000000000000000602082015250565b6000611248602483610d02565b9150611253826111ec565b604082019050919050565b600060208201905081810360008301526112778161123b565b9050919050565b7f45524332303a20617070726f766520746f20746865207a65726f20616464726560008201527f7373000000000000000000000000000000000000000000000000000000000000602082015250565b60006112da602283610d02565b91506112e58261127e565b604082019050919050565b60006020820190508181036000830152611309816112cd565b9050919050565b7f45524332303a20696e73756666696369656e7420616c6c6f77616e6365000000600082015250565b6000611346601d83610d02565b915061135182611310565b602082019050919050565b6000602082019050818103600083015261137581611339565b9050919050565b7f45524332303a207472616e736665722066726f6d20746865207a65726f20616460008201527f6472657373000000000000000000000000000000000000000000000000000000602082015250565b60006113d8602583610d02565b91506113e38261137c565b604082019050919050565b60006020820190508181036000830152611407816113cb565b9050919050565b7f45524332303a207472616e7366657220746f20746865207a65726f206164647260008201527f6573730000000000000000000000000000000000000000000000000000000000602082015250565b600061146a602383610d02565b91506114758261140e565b604082019050919050565b600060208201905081810360008301526114998161145d565b9050919050565b7f45524332303a207472616e7366657220616d6f756e742065786365656473206260008201527f616c616e63650000000000000000000000000000000000000000000000000000602082015250565b60006114fc602683610d02565b9150611507826114a0565b604082019050919050565b6000602082019050818103600083015261152b816114ef565b9050919050565b7f45524332303a206d696e7420746f20746865207a65726f206164647265737300600082015250565b6000611568601f83610d02565b915061157382611532565b602082019050919050565b600060208201905081810360008301526115978161155b565b905091905056fea264697066735822122036db3a09c51ce9b9b114b659f8add8190ed08bf1e9a1e6e48ec28b70fab33cfe64736f6c63430008090033",
  "linkReferences": {},
  "deployedLinkReferences": {}
}