{
  "_format": "hh-sol-artifact-1",
  "contractName": "Calculator",
  "sourceName": "contracts/Calculator.sol",
  "abi": [
    {
      "anonymous": false,
      "inputs": [
        {
          "indexed": false,
          "internalType": "bytes32",
          "name": "hash",
          "type": "bytes32"
        }
      ],
      "name": "UserAddressHash",
      "type": "event"
    },
    {
      "inputs": [],
      "name": "getUserAddressHash",
      "outputs": [
        {
          "internalType": "bytes32",
          "name": "",
          "type": "bytes32"
        }
      ],
      "stateMutability": "nonpayable",
      "type": "function"
    },
    {
      "inputs": [
        {
          "internalType": "uint256",
          "name": "a",
          "type": "uint256"
        },
        {
          "internalType": "uint256",
          "name": "b",
          "type": "uint256"
        }
      ],
      "name": "multiply",
      "outputs": [
        {
          "internalType": "uint256",
          "name": "c",
          "type": "uint256"
        }
      ],
      "stateMutability": "pure",
      "type": "function"
    },
    {
      "inputs": [
        {
          "internalType": "uint8",
          "name": "a",
          "type": "uint8"
        },
        {
          "internalType": "uint8",
          "name": "b",
          "type": "uint8"
        }
      ],
      "name": "safeSumUint8",
      "outputs": [
        {
          "internalType": "uint8",
          "name": "c",
          "type": "uint8"
        }
      ],
      "stateMutability": "pure",
      "type": "function"
    },
    {
      "inputs": [
        {
          "internalType": "uint256",
          "name": "a",
          "type": "uint256"
        },
        {
          "internalType": "uint256",
          "name": "b",
          "type": "uint256"
        }
      ],
      "name": "sum",
      "outputs": [
        {
          "internalType": "uint256",
          "name": "c",
          "type": "uint256"
        }
      ],
      "stateMutability": "pure",
      "type": "function"
    },
    {
      "inputs": [
        {
          "internalType": "uint8",
          "name": "a",
          "type": "uint8"
        },
        {
          "internalType": "uint8",
          "name": "b",
          "type": "uint8"
        }
      ],
      "name": "unsafeSumUint8",
      "outputs": [
        {
          "internalType": "uint8",
          "name": "c",
          "type": "uint8"
        }
      ],
      "stateMutability": "pure",
      "type": "function"
    }
  ],
  "bytecode": "0x608060405234801561001057600080fd5b5061048e806100206000396000f3fe608060405234801561001057600080fd5b50600436106100575760003560e01c8063165c4a161461005c5780639119c2671461008c57806396a503f8146100bc578063cad0899b146100da578063df5582cd1461010a575b600080fd5b6100766004803603810190610071919061021c565b61013a565b604051610083919061026b565b60405180910390f35b6100a660048036038101906100a191906102bf565b610147565b6040516100b3919061030e565b60405180910390f35b6100c4610154565b6040516100d19190610342565b60405180910390f35b6100f460048036038101906100ef919061021c565b6101be565b604051610101919061026b565b60405180910390f35b610124600480360381019061011f91906102bf565b6101cb565b604051610131919061030e565b60405180910390f35b6000818302905092915050565b6000818301905092915050565b6000803360405160200161016891906103d7565b6040516020818303038152906040528051906020012090507fee3ba26a4447333f368cb59ca1e77ec10b8b3332c541d0e66c51d2f8b717bcda816040516101af9190610342565b60405180910390a18091505090565b6000818301905092915050565b600081836101d99190610421565b905092915050565b600080fd5b6000819050919050565b6101f9816101e6565b811461020457600080fd5b50565b600081359050610216816101f0565b92915050565b60008060408385031215610233576102326101e1565b5b600061024185828601610207565b925050602061025285828601610207565b9150509250929050565b610265816101e6565b82525050565b6000602082019050610280600083018461025c565b92915050565b600060ff82169050919050565b61029c81610286565b81146102a757600080fd5b50565b6000813590506102b981610293565b92915050565b600080604083850312156102d6576102d56101e1565b5b60006102e4858286016102aa565b92505060206102f5858286016102aa565b9150509250929050565b61030881610286565b82525050565b600060208201905061032360008301846102ff565b92915050565b6000819050919050565b61033c81610329565b82525050565b60006020820190506103576000830184610333565b92915050565b600073ffffffffffffffffffffffffffffffffffffffff82169050919050565b60006103888261035d565b9050919050565b60008160601b9050919050565b60006103a78261038f565b9050919050565b60006103b98261039c565b9050919050565b6103d16103cc8261037d565b6103ae565b82525050565b60006103e382846103c0565b60148201915081905092915050565b7f4e487b7100000000000000000000000000000000000000000000000000000000600052601160045260246000fd5b600061042c82610286565b915061043783610286565b92508260ff0382111561044d5761044c6103f2565b5b82820190509291505056fea2646970667358221220a83315e42830b744ee18e271ca71be9eb4141f33d8481e91d06b1f83c9cb242864736f6c63430008090033",
  "linkReferences": {},
  "deployedLinkReferences": {}
}